:020000040800F2
:1000000000500020CD150008591500085B150008A8
:100010005D1500085F15000861150008000000006C
:100020000000000000000000000000006315000850
:100030006515000800000000671500086915000834
:1000400015160008151600081516000815160008E4
:1000500015160008151600086D150008151600087D
:1000600015160008151600081516000815160008C4
:1000700015160008151600081516000815160008B4
:100080007515000815160008151600081516000845
:100090001516000815160008151600081516000894
:1000A0001516000815160008151600081516000884
:1000B0001516000815160008151600081516000874
:1000C0001516000815160008151600081516000864
:1000D0001516000815160008151600081516000854
:1000E0001516000815160008151600080000000077
:1000F0000000000000000000000000000000000000
:0C01000000000000000000005FF808F1A3
:10010C0010B5054C237833B9044B13B10448AFF345
:10011C0000800123237010BD0C00002000000000A3
:10012C007016000808B5034B1BB103490348AFF325
:10013C00008008BD000000001000002070160008B0
:10014C00034613F8012B002AFBD1181A013870470B
:10015C0038B50E4B054618784FF47A73B3FBF0F3B1
:10016C000B4A1068B0FBF3F000F09EF8044658B947
:10017C000F2D09D8024629464FF0FF3000F054F8F5
:10018C00044B20461D6038BD012038BD0000002006
:10019C000800002004000020074A08B5136803205B
:1001AC0043F01003136000F02DF80020FFF7D0FF90
:1001BC0001F044F9002008BD00200240034A044B22
:1001CC0011681B780B441360704700BF2800002097
:1001DC0000000020014B1868704700BF2800002069
:1001EC0038B50446FFF7F6FF0546631C1EBF044BEB
:1001FC001B78E418FFF7EEFF401B8442FAD838BD99
:10020C0000000020074A0002D36800F4E06023F4E9
:10021C00E0631B041B0C43F0BF6343F40033034344
:10022C00D360704700ED00E0174B30B5DC68C4F3C9
:10023C000224C4F10703251D042B28BF0423062D1B
:10024C004FF0010598BF002405FA03F303F1FF33C7
:10025C0088BF033C1940A14005FA04F4013C22403C
:10026C00002842EA01024FEA0212AFBF00F16040DF
:10027C00064B00F00F00D2B2A5BFD2B200F5614020
:10028C001A5480F8002330BD00ED00E014ED00E0BE
:10029C000123420900F01F0003FA00F0014B43F860
:1002AC002200704700E100E00138B0F1807F0AD2F3
:1002BC00F021064B064A586082F8231000200722D2
:1002CC0098601A6070470120704700BF10E000E092
:1002DC0000ED00E010B530B314220168134B8468B4
:1002EC000B44B3FBF2F39B000364114B0A68C3632A
:1002FC00436822F47F522343C46822F03002234324
:10030C00046923434469234384692343C469234315
:10031C0013430B600122002380F82120836380F8B3
:10032C002030184610BD012010BD00BFF8FFFDBFE6
:10033C0000000240F0B590F82040012C35D001248B
:10034C0090F8215080F82040A5424FF000064FF065
:10035C00020428D180F82140046886632668076C63
:10036C0026F001062660C66BBD407560636043686D
:10037C000568102BC36A0BBFA260A160E160E2604C
:10038C004BB1236843F00E0323602B68002043F02D
:10039C0001032B60F0BD236823F004032360236862
:1003AC0043F00A03F0E780F820600220F0BD000063
:1003BC0070B40425C66B026C346803689540254202
:1003CC00196832D04D0730D51A6896065EBF1A6888
:1003DC0022F004021A603E4A934219D0143293421E
:1003EC0018D01432934217D01432934217D01432CF
:1003FC00934217D0143293420CBF4FF480034FF04A
:10040C008063344A5360C36A002B5ED070BC1847BB
:10041C000423F6E74023F4E74FF48063F1E74FF44D
:10042C008043EEE74FF48023EBE70225954025420D
:10043C0035D08D0733D51A68940606D41A6822F085
:10044C000A021A60012280F82120214A934219D015
:10045C001432934218D01432934217D01432934270
:10046C0017D01432934217D0143293420CBF4FF46E
:10047C0000134FF00073174A5360002380F82030AC
:10048C00836AC1E70223F6E72023F4E74FF40073F5
:10049C00F1E74FF40053EEE74FF40033EBE7082598
:1004AC009540254211D009070FD5196821F00E018E
:1004BC001960012303FA02F27260836380F8213021
:1004CC00002380F82030036B9EE770BC704700BFA0
:1004DC0008000240000002402DE9F74F00221646AA
:1004EC00654BDFF8A4E1DFF8A4C14FF001080C68FC
:1004FC0008FA06F808EA0404A0457FD14D68122DCD
:10050C0000F0AF8000F28880022D00F0A7807CD82C
:10051C00002D00F08E80012D00F09E804FF00F0911
:10052C00FF2C93BF824606F18045083DD0F800B001
:10053C0092BFB500D0F804B0AD0009FA05F82BEA6B
:10054C00080802FA05F588BF00F1040A48EA050517
:10055C00CAF80050D1F804A01AF0805F4ED0474D75
:10056C00464FAD6926F0030845F00105BD61BD6934
:10057C0008F1804805F00105019508F5803806F072
:10058C00030B019D4FEA8B0BD8F8085009FA0BF9B5
:10059C0025EA09093A4DA84268D005F58065A842BC
:1005AC0066D005F58065A84264D005F58065A84243
:1005BC000CBF0325042505FA0BF545EA0905C8F817
:1005CC0008501D681AF4803F14BF2543A5431D60D5
:1005DC005D681AF4003F14BF2543A5435D609D6818
:1005EC001AF4801F14BF2543A5439D60DD681AF4DF
:1005FC00001F14BF2C4325EA0404DC600136102EC6
:10060C007FF473AF03B0BDE8F08F032D22D0112D12
:10061C0084D1CA68043281E71A4FBD4209D012D87E
:10062C00DFF86C904D4504D009F580394D457FF4C9
:10063C0075AF8A68C2B1012A0CBFC0F81080C0F82F
:10064C00148008226AE77545F3D06545F1D0DFF8D0
:10065C004490EBE7002261E7CA685FE7CA6808329A
:10066C005CE7CA680C3259E7042257E70025A2E779
:10067C000125A0E702259EE700040140001002407E
:10068C000008014000002110000031100000321061
:10069C0000001110000022100AB10161704709041A
:1006AC00FBE7C3685940C1607047704708B5044BFD
:1006BC005969014202D05861FFF7F7FF08BD00BF2E
:1006CC000004014003682DE9F341DB07054610D413
:1006DC002B689F075ED42B68190700F195802B6857
:1006EC005A0700F1BF80EA69002A40F02D810020F2
:1006FC0014E0904C636803F00C03042B07D0636880
:10070C0003F00C03082B0CD16368DE0309D52368B6
:10071C009C03DDD56B68002BDAD1012002B0BDE85B
:10072C00F0816B68B3F5803F10D1236843F48033BC
:10073C002360FFF74FFD064623689803C8D4FFF7E4
:10074C0049FD801B6428F7D90320E7E79BB9236890
:10075C0023F480332360236823F480232360FFF782
:10076C0039FD064623689903B2D5FFF733FD801B8C
:10077C006428F7D9E8E7B3F5A02F236803D143F435
:10078C0080232360D1E723F480332360236823F490
:10079C008023CDE7674C636813F00C0F07D06368B8
:1007AC0003F00C03082B10D16368DA030DD4236813
:1007BC009B0702D52B69012BAFD123686A6923F003
:1007CC00F80343EAC203236085E72A695A4B6AB1EE
:1007DC0001221A60FFF7FEFC064623689F07ECD443
:1007EC00FFF7F8FC801B0228F7D9ADE71A60FFF77A
:1007FC00F1FC0646236898077FF56DAFFFF7EAFC1E
:10080C00801B0228F6D99FE7AA694A4C4B4BDAB1F8
:10081C0001221A60FFF7DEFC0646636A9B070DD5C2
:10082C004FF4FA52464B1B68B3FBF2F3019300BF33
:10083C00019B5A1E0192002BF9D150E7FFF7CAFC1D
:10084C00801B0228E9D97FE71A60FFF7C3FC064634
:10085C00636A9F077FF543AFFFF7BCFC801B022840
:10086C00F6D971E7334CE369D80024D40127E36946
:10087C0043F08053E361E36903F080530093009BE2
:10088C00304E3368D90518D5EB68012B26D1236A75
:10089C0043F001032362FFF79DFC41F2883680464A
:1008AC00236A9B073FD5002F3FF41DAFE36923F06C
:1008BC008053E36117E70027E2E7336843F4807362
:1008CC003360FFF787FC80463368DA05DCD4FFF72A
:1008DC0081FCA0EB08006428F6D935E7ABB9236A94
:1008EC0041F2883823F001032362236A23F00403C6
:1008FC002362FFF76FFC0646236A9807D3D5FFF7F0
:10090C0069FC801B4045F7D91EE7052B236A03D1F0
:10091C0043F004032362BAE723F001032362236A42
:10092C0023F00403B6E7FFF755FCA0EB0800B04238
:10093C00B6D909E70010024000004242800442424E
:10094C000800002000700040224C636803F00C0388
:10095C00082B3FF4E2AE00231F4E022A33602BD14A
:10096C00FFF738FC0746236899011FD42B6AB3F5AF
:10097C00803F05D16268A96822F400320A436260A4
:10098C00696A62680B4322F4741213436360012397
:10099C003360FFF71FFC054623689A013FF5A7AEAD
:1009AC00FFF718FC401B0228F6D9CDE6FFF712FC26
:1009BC00C01B0228D7D9C7E6FFF70CFC05462368F5
:1009CC009B017FF594AEFFF705FC401B0228F6D97E
:1009DC00BAE600BF001002406000424230B5194B2D
:1009EC0087B002AC03F11005224618685968083329
:1009FC0003C2AB421446F7D101238DF80430022315
:100A0C0011498DF805304B6803F00C02082A17D1F8
:100A1C00C3F3834206A80244DB0312F8102C0CD556
:100A2C004B680A48C3F34043504306AA134413F8D7
:100A3C00143CB0FBF3F007B030BD05485043FAE767
:100A4C000248F8E7881600080010024000127A00ED
:100A5C0000093D00544A2DE9F0411368054603F0A6
:100A6C0007038B420E462AD329688C0734D4CA0755
:100A7C0047D44D4A136803F007039E42C0F08280AE
:100A8C002A684A4C12F0040F40F08780130706D5F1
:100A9C0063682A6923F4605343EAC2036360FFF777
:100AAC009DFF6368424AC3F30313D35CD840414BA8
:100ABC0018600020FFF74CFB0020BDE8F0811368A4
:100ACC0023F007030B431360136803F007039942E9
:100ADC00CAD00120BDE8F081344B11F0040F1EBFC9
:100AEC005A6842F4E0625A60080742BF5A6842F4FE
:100AFC0060525A605A68A86822F0F00202435A60A9
:100B0C00B5E76A68294C012A23681CD113F4003F0D
:100B1C00DFD0636841F2883823F00303134363602A
:100B2C00FFF758FB6B680746012B14D1636803F081
:100B3C000C03042B9DD0FFF74DFBC01B4045F5D992
:100B4C000320BDE8F081022A02D113F0007FDFE719
:100B5C0013F0020FDCE7022B0FD1636803F00C03D8
:100B6C00082B86D0FFF736FBC01B4045F5D9E7E7CD
:100B7C00FFF730FBC01B4045E2D8636813F00C0F45
:100B8C00F6D176E7136823F0070333431360136839
:100B9C0003F007039E429CD172E76368E96823F473
:100BAC00E0630B43636071E70020024000100240D9
:100BBC00B616000808000020044B054A5B68C3F316
:100BCC000223D35C034A1068D840704700100240DF
:100BDC00C616000808000020044B054A5B68C3F3E6
:100BEC00C223D35C034A1068D840704700100240FF
:100BFC00C61600080800002090F83C3070B5012B98
:100C0C004FF002031CD0012280F83D30036880F8BD
:100C1C003C209A6822F47F4222F077029A600A689C
:100C2C00402A79D019D8102A00F093800AD8002ACB
:100C3C0000F08980012380F83D30002380F83C309F
:100C4C00184670BD202A00F08A80302AF2D19A68AA
:100C5C0022F0700242F0370236E0702A36D01BD8F0
:100C6C00502A42D0602AE5D11C6A4D6824F0100449
:100C7C00CE681C6299691A6A21F4704122F0A002B4
:100C8C0042EA051241EA063199611A629A6822F029
:100C9C00700242F0670217E0B2F5805F11D0B2F536
:100CAC00005FC7D18A684D689C68C9682A4324F4E0
:100CBC007F4442EA012222439A609A6842F48042BD
:100CCC0002E09A6822F007029A60B3E78A684D68DE
:100CDC009C68C9682A4324F47F4442EA01222243D7
:100CEC009A609A6842F07702EEE74C68CE68196A0F
:100CFC001D6A21F00A0125F001051D629A69214344
:100D0C0022F0F00242EA06129A6119629A6822F005
:100D1C00700242F05702D7E74C68CE68196A1D6A18
:100D2C0021F00A0125F001051D629A69214322F088
:100D3C00F00242EA06129A6119629A6822F0700275
:100D4C0042F04702C0E79A6822F0700242F00702B4
:100D5C00BAE79A6822F0700242F01702B4E79A6878
:100D6C0022F0700242F02702AEE700001A4A036834
:100D7C0090420AD0B0F1804F07D0A2F59432904245
:100D8C0003D002F58062904215D14A6823F07003BB
:100D9C001343114A90420AD0B0F1804F07D0A2F50C
:100DAC009432904203D002F58062904203D1CA681B
:100DBC0023F4407313434A6923F080031343036005
:100DCC008B68C3620B688362034B984204BF0B6948
:100DDC000363012343617047002C014010B50446A6
:100DEC00A0B190F83D3003F0FF021BB980F83C2015
:100DFC0000F046FB0223206884F83D30211DFFF7EC
:100E0C00B5FF0123002084F83D3010BD012010BD3A
:100E1C0090F83C3010B5012B4FF0020318D080F83D
:100E2C003D3003680C685A68496822F070025A60B9
:100E3C005A6822435A609A6822F080029A609A6833
:100E4C000A439A60012380F83D30002380F83C303F
:100E5C00184610BD0368DA6822F49072DA605A6999
:100E6C0022F001025A61202380F83A3070470000CA
:100E7C002DE9F0470568C2682B69016923F44053DA
:100E8C0013432B618368EA680B43416922F4B05227
:100E9C0022F00C020B431343EB606B69826923F461
:100EAC00407313436B61404B81469D424FF01904D4
:100EBC0046D1FFF791FE04FB00F3D9F804604FF024
:100ECC006408B600B3FBF6F3B3FBF8F31E01FFF7AF
:100EDC0083FE6043D9F804309B00B0FBF3F7FFF7B7
:100EEC007BFE6043D9F804309B00B0FBF3F3B3FBFB
:100EFC00F8F308FB13731B013233B3FBF8F303F065
:100F0C00F007FFF769FE6043D9F804209200B0FBAC
:100F1C00F2FAFFF761FE6043D9F804309B00B0FB96
:100F2C00F3F3B3FBF8F308FB13A31B013233B3FB4E
:100F3C00F8F303F00F033B433344AB60BDE8F08799
:100F4C00FFF73AFE04FB00F3D9F804604FF0640895
:100F5C00B600B3FBF6F3B3FBF8F31E01FFF72CFE60
:100F6C006043D9F804309B00B0FBF3F7FFF724FE85
:100F7C006043D9F804309B00B0FBF3F3B3FBF8F3F8
:100F8C0008FB13731B013233B3FBF8F303F0F007C8
:100F9C00FFF712FE6043D9F804209200B0FBF2FA7E
:100FAC00FFF70AFEB7E700BF00380140F8B504466A
:100FBC000E4617461D4621680B6836EA030301D11D
:100FCC000020F8BD6B1CF7D095B923680320DA68B4
:100FDC0022F4D072DA605A6922F001025A6120239D
:100FEC0084F8393084F83A30002384F83830F8BD6E
:100FFC00FFF7F0F8C01B8542DDD2E6E710B50446DA
:10100C0040B390F8393003F0FF021BB980F8382058
:10101C0000F04AFA2423226884F83930D368204639
:10102C0023F40053D360FFF723FF236800201A69D1
:10103C0022F490421A615A6922F02A025A61DA6843
:10104C0042F40052DA602023E06384F8393084F8EB
:10105C003A3010BD012010BD2DE9F0411F4690F82B
:10106C0039300446202B0D4690464ED1002949D0EC
:10107C00002A47D090F83830012B46D0012380F855
:10108C0038300023C363212380F83930FFF7A2F8EE
:10109C000646A4F82480A4F82680E38C9BB26BB996
:1010AC003B46324640212046FFF780FFA8B920235B
:1010BC0084F8380084F83930BDE8F081E38C32468E
:1010CC00013B9BB2E384A3688021B3F5805F20468B
:1010DC003B460ED1FFF76AFF10B10320BDE8F0814B
:1010EC002B882268C3F308035360236943B9023584
:1010FC00D3E7FFF75BFF0028EFD123682A785A600B
:10110C000135CAE70120BDE8F0810220BDE8F0817D
:10111C00134690F83A2073B5202A054638D1002999
:10112C0034D0002B32D090F83820012A30D0012254
:10113C00002480F83820222281628385C46380F8E1
:10114C003A20406B134A2E688262134A4463C2628F
:10115C00124A02630A46311DFFF7ECF820462B6851
:10116C0001941A6801925A6885F838400192019AE4
:10117C00DA6842F48072DA605A6942F001025A610C
:10118C005A6942F040025A6102B070BD0120FBE77F
:10119C000220F9E7AD110008E7110008F31100086F
:1011AC0008B50368426A1B6813F0200310D1D3857D
:1011BC001368D96821F48071D960596921F0010153
:1011CC005961596921F040015961202382F83A3064
:1011DC00104600F029F908BD704708B5406AFFF7C2
:1011EC00FBFF08BD7047416A08B50B685A6991F856
:1011FC00390021280AD1120608D50022CA84DA68DF
:10120C0022F0C002DA60202281F839205B6991F863
:10121C003A20222A06D15B0604D500230846CB854A
:10122C00FFF718FECB6B084643F01003CB63FFF7B8
:10123C00D9FF08BD00B591B02822002106A800F006
:10124C0009FA1422002101A800F004FA02230693E3
:10125C0001230A93102306A80B93FFF733FA0021FE
:10126C000F2301A801930291039104910591FFF7BB
:10127C00F1FB11B05DF804FB80B5614D90B0FEF749
:10128C008BFFFFF7D7FF1022002108A800F0E2F92E
:10129C00AB69002243F01003AB61AB694FF4005112
:1012AC0003F010030293029BAB69564843F004030E
:1012BC00AB61AB69002403F004030393039BAB699C
:1012CC00012643F00803AB61AB69022703F0080366
:1012DC000493049BFFF7E0F900224FF480614A4825
:1012EC00FFF7DAF94FF4005308A9464808930A941B
:1012FC0009960B97FFF7F0F8444B08A9444809935B
:10130C0008960A96FFF7E8F84FF4806308A93E4860
:10131C0008930A9409960B97FFF7DEF822462146AC
:10132C000620FEF781FF0620FEF7B2FF6B6922460E
:10133C0033436B616B692146334001931020019B51
:10134C00FEF772FF1020FEF7A3FF2146102208A81B
:10135C0000F080F94FF4FA532E4D2F4A284685E8B9
:10136C000C004FF47A73AC60EB602C61AC610594AB
:10137C000694FFF733FD4FF4805308A928460893D1
:10138C00FFF73AFC05A9284605940694FFF740FDA3
:10139C004FF4E133214D2249284685E80A000C23FD
:1013AC00AC60EC602C616B61AC61EC61FFF726FE0C
:1013BC001C4A08AB1068516803C39068214618603A
:1013CC0012220BA800F046F90A2205A92846FFF7BD
:1013DC009FFE04F1804404F5883408A8FEF7B0FEA3
:1013EC000A2382B208A92846FFF736FE20464FF49E
:1013FC000051FFF756F94FF49670FEF7F1FEECE74B
:10140C000010024000100140000C014000001110BF
:10141C00000801407000002000040040B0000020D3
:10142C0000440040981600084FF480610148FFF713
:10143C0038B900BF000C0140704700000E4B82B061
:10144C009A6942F001029A619A6902F001020092D3
:10145C00009ADA6942F08052DA61DB69074A03F0DC
:10146C0080530193019B536823F0E06343F00073B6
:10147C00536002B0704700BF0010024000000140F2
:10148C000268084B82B09A420AD103F50333DA6939
:10149C0042F00202DA61DB6903F002030193019B63
:1014AC0002B070470004004070B5064686B01022AA
:1014BC00002102A800F0CEF83268204B9A423BD1B2
:1014CC0003F5E633DA6902A942F40032DA61DA692B
:1014DC001B4802F400320092009A9A69002542F0EF
:1014EC0004029A619B69174C03F004030193019B5E
:1014FC00042302930223039303230593FEF7ECFFCB
:10150C0008230F480DEB0301029303950495FEF796
:10151C00E3FF0D4B204684E828008023E360202362
:10152C00A56025616561A361E561FEF7D3FE08B195
:10153C00FFF782FF7463666206B070BD0044004022
:10154C00000801402C0000206C0002407047FEE7B0
:10155C00FEE7FEE7FEE7704770477047FEF72EBECA
:10156C000120FFF7A3B800000148FEF721BF00BF20
:10157C002C0000200F4B1A6842F001021A605968C7
:10158C000D4A0A405A601A6822F0847222F48032A2
:10159C001A601A6822F480221A605A6822F4FE0239
:1015AC005A604FF41F029A604FF00062034B9A602E
:1015BC00704700BF001002400000FFF800ED00E093
:1015CC00002103E00B4B5B58435004310A480B4B92
:1015DC0042189A42F6D30A4A02E0002342F8043B2E
:1015EC00084B9A42F9D3FFF7C5FF00F00FF8FFF74D
:1015FC0043FE7047D8160008000000200C000020A5
:10160C000C000020F0000020FEE7000070B5002563
:10161C000C4E0D4CA41BA410A54209D100F022F8CD
:10162C0000250A4E0A4CA41BA410A54205D170BD7E
:10163C0056F8253098470135EEE756F8253098478F
:10164C000135F2E7D0160008D0160008D0160008B5
:10165C00D416000803460244934200D1704703F8A5
:10166C00011BF9E7F8B500BFF8BC08BC9E467047F3
:0C167C00F8B500BFF8BC08BC9E467047E3
:1016880002030405060708090A0B0C0D0E0F1010BB
:1016980048656C6C6F20576F726C64000000000026
:1016A8000000000000000000000000000000000032
:1016B80000000000000001020304060708090000FA
:0816C800000001020304000010
:0416D00031010008DC
:0416D4000D010008FC
:0C16D800010000001000000000A24A0405
:04000005080015CD0D
:00000001FF
