:020000040800F2
:1000000000500020CD100008F10F0008F30F000889
:10001000F50F0008F70F0008F90F000800000000B6
:10002000000000000000000000000000FB0F0008BE
:10003000FD0F000800000000FF0F0008011000087D
:1000400015110008151100081511000815110008F8
:1000500015110008151100080510000815110008F9
:1000600015110008151100081511000815110008D8
:1000700015110008151100081511000815110008C8
:1000800015110008151100081511000815110008B8
:1000900015110008151100081511000815110008A8
:1000A0001511000815110008151100081511000898
:1000B0001511000819100008491000081511000852
:1000C0001511000815110008151100081511000878
:1000D0001511000815110008151100081511000868
:1000E0001511000815110008151100080000000086
:1000F0000000000000000000000000000000000000
:0C01000000000000000000005FF808F1A3
:10010C0010B5054C237833B9044B13B10448AFF345
:10011C0000800123237010BD0C00002000000000A3
:10012C007011000808B5034B1BB103490348AFF32A
:10013C00008008BD000000001000002070110008B5
:10014C0038B50E4B054618784FF47A73B3FBF0F3C1
:10015C000B4A1068B0FBF3F000F08EF8044658B967
:10016C000F2D09D8024629464FF0FF3000F042F817
:10017C00044B20461D6038BD012038BD0000002016
:10018C000800002004000020074A08B5136803206B
:10019C0043F01003136000F01BF80020FFF7D0FFB2
:1001AC0000F0CAFE002008BD00200240034A044BA8
:1001BC0011681B780B441360704700BF28000020A7
:1001CC0000000020014B1868704700BF2800002079
:1001DC00074A0002D36800F4E06023F4E0631B04D8
:1001EC001B0C43F0BF6343F400330343D3607047ED
:1001FC0000ED00E0174B30B5DC68C4F30224C4F109
:10020C000703251D042B28BF0423062D4FF00105E1
:10021C0098BF002405FA03F303F1FF3388BF033CB6
:10022C001940A14005FA04F4013C2240002842EA9E
:10023C0001024FEA0212A9BF00F16040064BD2B294
:10024C0000F56140BBBF00F00F00D2B280F8002374
:10025C001A5430BD00ED00E014ED00E0002808DB7E
:10026C000123420900F01F0003FA00F0014B43F890
:10027C002200704700E100E00138B0F1807F0AD223
:10028C00F021064B064A586082F823100020072202
:10029C0098601A6070470120704700BF10E000E0C2
:1002AC0000ED00E02DE9F74F00242646664BDFF801
:1002BC00A8E1DFF8A8C10A6832FA06F502D103B04A
:1002CC00BDE8F08F4FF0010808FA06F802EA0802C0
:1002DC0090457FD14D68122D00F0AA8000F28380EA
:1002EC00022D00F0A28077D8002D00F08980012D1E
:1002FC0000F099804FF00F09FF2A93BF824606F158
:10030C008045083DD0F800B092BFB500D0F804B0DD
:10031C00AD0009FA05F82BEA080804FA05F588BFC0
:10032C0000F1040A48EA0505CAF80050D1F804A007
:10033C001AF0805F4ED0454D444FAD6926F003084E
:10034C0045F00105BD61BD6908F1804805F0010566
:10035C00019508F5803806F0030B019D4FEA8B0BD5
:10036C00D8F8085009FA0BF925EA0909384DA842C2
:10037C0063D005F58065A84261D005F58065A8427B
:10038C005FD005F58065A8420CBF0325042505FA4E
:10039C000BF545EA0905C8F808501D681AF4803FAA
:1003AC0014BF154395431D605D681AF4003F14BFDC
:1003BC00154395435D609D681AF4801F14BF154367
:1003CC0095439D60DD681AF4001F14BF2A4325EA8B
:1003DC000202DA6001366EE7032D22D0112D89D18D
:1003EC00CC68043486E71B4FBD4209D012D8DFF825
:1003FC0070904D4504D009F580394D457FF47AAFA6
:10040C008C68C4B1012C0CBFC0F81080C0F81480EB
:10041C0008246FE77545F3D06545F1D0DFF84490BB
:10042C00EBE7002466E7CC6864E7CC68083461E746
:10043C00CC680C345EE704245CE70025A7E70125B3
:10044C00A5E70225A3E700BF00040140001002400D
:10045C000008014000002110000031100000321093
:10046C0000001110000022100AB10161704709044C
:10047C00FBE7C3680B4214BF4161016170477047D1
:10048C0008B5044B5969014202D05861FFF7F7FFD8
:10049C0008BD00BF000401402DE9F341054608B931
:1004AC0001203CE00368DB0710D42B689F075DD468
:1004BC002B68190700F194802B685A0700F1BE8055
:1004CC00E869002840F02C81002028E08F4C6368FC
:1004DC0003F00C03042B07D0636803F00C03082B08
:1004EC0009D16368DE0306D523689C03DDD56B68F0
:1004FC00002BDAD1D4E76B68B3F5803F12D12368B7
:10050C0043F480332360FFF75DFE064623689803AF
:10051C00CBD4FFF757FE801B6428F7D9032002B019
:10052C00BDE8F0819BB9236823F4803323602368F2
:10053C0023F480232360FFF745FE064623689903C6
:10054C00B3D5FFF73FFE801B6428F7D9E6E7B3F578
:10055C00A02F236803D143F480232360CFE723F437
:10056C0080332360236823F48023CBE7674C6368D4
:10057C0013F00C0F07D0636803F00C03082B10D199
:10058C006368DA030DD423689B0702D52B69012B12
:10059C0086D123686A6923F0F80343EAC203236017
:1005AC0086E72A695A4B6AB101221A60FFF70AFEE4
:1005BC00064623689F07ECD4FFF704FE801B022835
:1005CC00F7D9ABE71A60FFF7FDFD064623689807DD
:1005DC007FF56EAFFFF7F6FD801B0228F6D99DE77D
:1005EC00AA694A4C4B4BDAB101221A60FFF7EAFDBB
:1005FC000646636A9B070DD54FF4FA52464B1B68AF
:10060C00B3FBF2F3019300BF019B5A1E0192002B26
:10061C00F9D151E7FFF7D6FD801B0228E9D97DE718
:10062C001A60FFF7CFFD0646636A9F077FF544AF5C
:10063C00FFF7C8FD801B0228F6D96FE7334CE3693E
:10064C00D80024D40127E36943F08053E361E369C4
:10065C0003F080530093009B304E3368D90518D5B6
:10066C00EB68012B26D1236A43F001032362FFF7C9
:10067C00A9FD41F288368046236A9B073FD5002F9F
:10068C003FF41EAFE36923F08053E36118E70027C2
:10069C00E2E7336843F480733360FFF793FD8046E1
:1006AC003368DA05DCD4FFF78DFDA0EB0800642875
:1006BC00F6D933E7ABB9236A41F2883823F001034A
:1006CC002362236A23F004032362FFF77BFD0646B3
:1006DC00236A9807D3D5FFF775FD801B4045F7D9E2
:1006EC001CE7052B236A03D143F004032362BAE70A
:1006FC0023F001032362236A23F00403B6E7FFF718
:10070C0061FDA0EB0800B042B6D907E7001002402B
:10071C000000424280044242080000200070004069
:10072C002A4B5A681C4602F00C02082A3DD00023C2
:10073C00274E022833602BD1FFF744FD0746236870
:10074C0099011FD42B6AB3F5803F05D16268A96863
:10075C0022F400320A436260696A62680B4322F435
:10076C0074121343636001233360FFF72BFD0546BE
:10077C0023689A013FF5A8AEFFF724FD401B022821
:10078C00F6D9CBE6FFF71EFDC01B0228D7D9C5E66C
:10079C00FFF718FD054623689B017FF595AEFFF723
:1007AC0011FD401B0228F6D9B8E601283FF4B7AE7C
:1007BC0058682B6A00F480329A427FF471AE6B6AEF
:1007CC0000F47010C01A18BF0120A8E600100240F7
:1007DC006000424230B5194B87B002AC03F11005F2
:1007EC00224618685968083303C2AB421446F7D145
:1007FC0001238DF80430022311498DF805304B6824
:10080C0003F00C02082A17D1C3F3834206A8024452
:10081C00DB0312F8102C0CD54B680A48C3F3404389
:10082C00504306AA134413F8143CB0FBF3F007B082
:10083C0030BD05485043FAE70248F8E78811000834
:10084C000010024000127A0000093D002DE9F04131
:10085C000D46044610B90120BDE8F081454A1368E5
:10086C0003F007038B4229D321688E0731D4CA07C2
:10087C0044D4404A136803F007039D4267D32268AF
:10088C003D4D12F0040F6ED1130706D56B6822692B
:10089C0023F4605343EAC2036B60FFF79BFF6B6862
:1008AC00364AC3F30313D35CD840354B1860354B31
:1008BC001868FFF745FC0020BDE8F081136823F0B1
:1008CC0007030B431360136803F007039942C2D16B
:1008DC00CAE7294B11F0040F1EBF5A6842F4E062BC
:1008EC005A60080742BF5A6842F460525A605A680C
:1008FC00A06822F0F00202435A60B8E762681E4E0C
:10090C00012A33681BD113F4003FA4D0736841F261
:10091C00883823F0030313437360FFF753FC074637
:10092C007368626803F00C03B3EB820FA1D0FFF77E
:10093C0049FCC01B4045F3D90320BDE8F081022AD5
:10094C0002D113F0007FE0E713F0020FDDE713682C
:10095C0023F007032B431360136803F007039D4236
:10096C007FF479AF8BE76B68E16823F4E0630B43AA
:10097C006B6089E7002002400010024098110008CB
:10098C00080000200400002003680020DA6842F010
:10099C000102DA609A6802F00702062A1EBF1A6882
:1009AC0042F001021A6070470368DA6822F0010213
:1009BC00DA6041F21112196A114208D140F2444234
:1009CC00196A114202BF1A6822F001021A60002053
:1009DC00704770477047704770477047036810B591
:1009EC001A69044691070ED5DA6892070BD56FF099
:1009FC0002021A6101229B6902779B0777D0FFF7ED
:100A0C00EAFF0023237723681A69500710D5DA68A8
:100A1C0051070DD56FF004021A6102229B692277EF
:100A2C0013F4407F204668D0FFF7D5FF00232377CF
:100A3C0023681A6912070FD5DA6810070CD56FF006
:100A4C0008021A610422DB692277990720465AD0E2
:100A5C00FFF7C1FF0023237723681A69D20610D54C
:100A6C00DA68D0060DD56FF010021A610822DB6926
:100A7C00227713F4407F20464BD0FFF7ACFF0023C6
:100A8C00237723681A69D10708D5DA68D20705D508
:100A9C006FF0010220461A61FFF79BFF23681A6969
:100AAC00100608D5DA68110605D56FF080022046CD
:100ABC001A6100F044F923681A69520608D5DA68FD
:100ACC00500605D56FF0400220461A61FFF785FFEE
:100ADC0023681A69910622D5DA6892061FD56FF041
:100AEC0020022046BDE810401A6100F027B9FFF73C
:100AFC0071FF2046FFF770FF83E7FFF76BFF20467F
:100B0C00FFF76AFF92E7FFF765FF2046FFF764FFE8
:100B1C00A0E7FFF75FFF2046FFF75EFFAFE710BDD2
:100B2C001A4A036890420AD0B0F1804F07D0A2F560
:100B3C009432904203D002F58062904215D14A68FB
:100B4C0023F070031343114A90420AD0B0F1804F46
:100B5C0007D0A2F59432904203D002F58062904205
:100B6C0003D1CA6823F4407313434A6923F080030A
:100B7C00134303608B68C3620B688362034B984218
:100B8C0004BF0B690363012343617047002C0140D0
:100B9C0010B50446A0B190F83D3003F0FF021BB92C
:100BAC0080F83C2000F0EAF90223206884F83D30FC
:100BBC00211DFFF7B5FF0123002084F83D3010BD47
:100BCC00012010BD10B584680A4324F47F4442EA26
:100BDC0003232343836010BD90F83C3070B5012B88
:100BEC0004464FF0020019D0012384F83D00206820
:100BFC0084F83C30836823F47F4323F077038360CD
:100C0C000B68402B65D015D8102B0CD007D853B1DE
:100C1C000123002084F83D3084F83C0070BD202B6B
:100C2C0001D0302BF4D1826843F0070322F070021C
:100C3C0013431AE0602B34D019D8502BE8D14A68F2
:100C4C00CE68016A056A21F00A0125F001050562EA
:100C5C0083690A4323F0F00343EA061383610262BB
:100C6C00836823F0700343F057038360D0E7702B45
:100C7C000CD0B3F5005FCBD1CB684A688968FFF71D
:100C8C00A1FF2268936843F4804308E0CB684A686C
:100C9C008968FFF797FF2268936843F077039360A6
:100CAC00B6E74D68CE68016A21F0100101628269D5
:100CBC00036A22F4704223F0A00343EA051342EACC
:100CCC00063282610362836823F0700343F067038A
:100CDC00CBE74A68CE68016A056A21F00A0125F063
:100CEC000105056283690A4323F0F00343EA061306
:100CFC0083610262836823F0700343F04703B4E717
:100D0C0090F83C3030B5012B4FF0020314D004683E
:100D1C0080F83D306268A3680D68496822F0700263
:100D2C0023F080030B432A436260A360012380F805
:100D3C003D30002380F83C30184630BD704770477A
:100D4C0000B591B02822002106A800F003FA142265
:100D5C00002101A800F0FEF90223069301230A9357
:100D6C00102306A80B93FFF797FB00210F2301A874
:100D7C0001930291039104910591FFF767FD11B066
:100D8C005DF804FB002401254FF4005A4FF00209D2
:100D9C002DE980485D4E5E4FDFF894818BB0FFF7F4
:100DAC00F3F934703C7088F80040FFF7C9FF214616
:100DBC00102206A800F0CEF9564B4FF400519A6958
:100DCC00554842F010029A619A69DFF868B102F056
:100DDC0010020292029A9A6942F004029A619B698B
:100DEC00224603F004030393039BFFF73DFB06A984
:100DFC00494807950894CDF818A0CDF82490FFF732
:100E0C0051FA464B06A94648079306950895FFF7F5
:100E1C0049FA224621460620FFF7ECF90620FFF797
:100E2C001DFA2146102206A800F094F93D4D3E4BC8
:100E3C004FF496722B604FF4FA532846EA600494F0
:100E4C0005946B600193AC602C61AC61FFF7A0FE64
:100E5C004FF4805306A928460693FFF7BDFE04A95C
:100E6C00284604940594FFF74BFF1022214606A850
:100E7C0000F070F9019B2D49CBF8043064235846DF
:100E8C0004940594CBF80010CBF80840CBF80C3048
:100E9C00CBF81040CBF81840FFF77AFE4FF4805394
:100EAC0006A958460693FFF797FE04A958460494E2
:100EBC000594FFF725FF51461748FFF7DAFA5C4611
:100ECC003378DBB2012B18D00DD3022BF8D13B7841
:100EDC00022BF5D12046FFF767FD002333703B70E2
:100EEC0088F80030ECE798F80030002BE8D0284662
:100EFC00FFF74AFD01233370E2E73B78012BDFD18A
:100F0C002046FFF741FD86F80090D9E76C000020E1
:100F1C006D00002000100240001001400000211064
:100F2C000008014070000020000400400008004050
:100F3C00B00000202C0000200E4B82B09A6942F0C9
:100F4C0001029A619A6902F001020092009ADA6930
:100F5C0042F08052DA61DB69074A03F08053019357
:100F6C00019B536823F0E06343F00073536002B0BD
:100F7C00704700BF001002400000014007B5036835
:100F8C00154A934214D1154B1D20DA6942F0020226
:100F9C00DA610022DB69114603F002030093009B27
:100FAC00FFF728F91D20FFF759F903B05DF804FB92
:100FBC000B4A9342F9D1094B1E20DA6942F0040224
:100FCC00DA610022DB69114603F004030193019BF3
:100FDC00FFF710F91E20E6E7000400400010024065
:100FEC00000800407047FEE7FEE7FEE7FEE77047AB
:100FFC0070477047FFF7DAB808B50120FFF740FAE1
:10100C000122014B1A7008BDB000002008B507483A
:10101C00FFF7E4FC4FF400510548FFF72AFA0123CF
:10102C00044A1370044A137008BD00BF70000020FE
:10103C00001001406C0000206D00002008B508482D
:10104C00FFF7CCFC0748FFF7AFFC4FF40051064804
:10105C00FFF70FFA0223054A1370054A137008BDF7
:10106C002C00002070000020001001406C000020BB
:10107C006D0000200F4B1A6842F001021A6059688B
:10108C000D4A0A405A601A6822F0847222F48032A7
:10109C001A601A6822F480221A605A6822F4FE023E
:1010AC005A604FF41F029A604FF00062034B9A6033
:1010BC00704700BF001002400000FFF800ED00E098
:1010CC00002103E00B4B5B58435004310A480B4B97
:1010DC0042189A42F6D30A4A02E0002342F8043B33
:1010EC00084B9A42F9D3FFF7C5FF00F00FF8FFF752
:1010FC0049FE7047B0110008000000200C000020D1
:10110C000C000020B4000020FEE7000070B50025A4
:10111C000C4E0D4CA41BA410A54209D100F022F8D2
:10112C0000250A4E0A4CA41BA410A54205D170BD83
:10113C0056F8253098470135EEE756F82530984794
:10114C000135F2E7A8110008A8110008A811000841
:10115C00AC11000803460244934200D1704703F8D7
:10116C00011BF9E7F8B500BFF8BC08BC9E467047F8
:0C117C00F8B500BFF8BC08BC9E467047E8
:1011880002030405060708090A0B0C0D0E0F1010C0
:10119800000000000000000001020304060708091F
:0411A8003101000809
:0411AC000D01000829
:0C11B00001000000100000000024F4000A
:04000005080010CD12
:00000001FF
